:100000004BC0000067C0000065C0000063C0000076
:1000100061C000005FC000005DC000005BC0000068
:1000200059C0000057C0000055C000000C94D20910
:1000300051C000004FC000004DC000004BC0000088
:100040009BC0000047C0000045C0000043C0000046
:100050005DC700000C947A093DC000003BC0000061
:1000600039C0000037C0000035C0000033C00000B8
:1000700077C700000C94A2092DC000002BC000001F
:1000800029C0000027C0000025C000006364696E1D
:100090006F70737578585B0011241FBECFEFD0E4EA
:1000A000DEBFCDBF12E0A0E0B1E0E6EBF5E200E09C
:1000B0000BBF02C007900D92A435B107D9F712E02B
:1000C000A4E5B2E001C01D92A53DB107E1F746D21B
:1000D0000C94D91295CFCF93DF9311B80A9A129A44
:1000E000C0E0D0E08AE090E00E94190A2196C83C66
:1000F000D105C1F712981092590210925A0210922B
:100100005B0210925C0210925D0210925E021092ED
:100110005F021092600210925502109256021092E5
:10012000570210925802DF91CF91089560E070E07D
:1001300080E090E097D382E491E09F938F930E94B8
:10014000830C84B5826084BD85B5877F85BD8EE4D0
:1001500087BD85B5846085BDEEE6F0E08081826074
:1001600080831092630210926402109265021092D2
:1001700066020F900F9008951F920F920FB60F9284
:1001800011240BB60F921BBE2F933F934F935F9397
:100190006F937F938F939F93AF93BF93EF93FF934F
:1001A0006091630270916402809165029091660291
:1001B0006F5F7F4F8F4F9F4F609363027093640216
:1001C00080936502909366022091050130910601AB
:1001D00040E050E00E94910A672B682B692B31F4B4
:1001E00081E090E09093620280936102FF91EF9131
:1001F000BF91AF919F918F917F916F915F914F913F
:100200003F912F910F900BBE0F900FBE0F901F903C
:100210001895809107018F5F80930701089502C0B0
:100220000E94440982E07CD48823D1F30895462FAC
:10023000BC0182E00E947809F2CFA4E2B0E0E3E2E0
:10024000F1E00C94C10A9E012F5D3F4F3F932F9325
:100250009E012C5D3F4F3F932F939E012D5D3F4F9D
:100260003F932F932FE431E03F932F939F938F93EE
:100270000E94C90C8AA18F9389A18F932CA1822FF0
:10028000992787FD90959F932F932BA1822F9927D4
:1002900087FD90959F932F9388E591E09F938F938F
:1002A0008E010F5F1F4F1F930F930E94990CBC018B
:1002B000C801BDDF8CA1982F91560FB6F894DEBF10
:1002C0000FBECDBF9A3110F490E201C090E0891BBF
:1002D0008CA3873469F01CF4813429F409C0823579
:1002E00039F0893529F067E170E08AE691E0D3C002
:1002F0009BA19A3509F490C034F4903569F0943597
:1003000009F0C5C0C9C0943709F4C6C09A3709F4CA
:1003100083C0903709F0BBC08734D1F024F4813416
:1003200009F075C03CC0823521F0893509F06FC0F5
:100330001EC0809160028F9380915F028F938091A5
:100340005E028F9380915D028F938EE991E01DC0D4
:1003500080915C028F9380915B028F9380915A020F
:100360008F93809159028F938EEA91E00EC0809115
:1003700058028F93809157028F93809156028F93EA
:10038000809155028F938EEB91E09F938F938E0116
:100390000F5F1F4F1F930F930E94990C2FC08091E6
:1003A00058028F93809157028F93809156028F93BA
:1003B000809155028F9380915C028F9380915B02B4
:1003C0008F9380915A028F93809159028F938091DD
:1003D00060028F9380915F028F9380915E028F9372
:1003E00080915D028F938EEC91E09F938F938E01AD
:1003F0000F5F1F4F1F930F930E94990CBC01C80100
:1004000016DF0FB6F894DEBF0FBECDBF45C06BE15F
:1004100070E087EE91E03FC0873449F01CF48134EE
:1004200089F517C0823529F1893561F509C0109227
:10043000590210925A0210925B0210925C022CC078
:1004400010925502109256021092570210925802C2
:1004500023C0109255021092560210925702109229
:1004600058021092590210925A0210925B02109296
:100470005C0210925D0210925E0210925F02109276
:1004800060020AC06BE170E083E092E004C06BE1BF
:1004900070E08FE192E0CBDE6BE170E082E891E00A
:1004A000C6DEA496E4E00C94DD0AA0E2B0E0EBE541
:1004B000F2E00C94C30A82E023D39091AA02209127
:1004C0006B0230916C028917D9F0A1E0B0E0AC0F5B
:1004D000BD1FA20FB31FE92FF0E0E657FD4F80814B
:1004E0008C932F5F3F4F30936C0220936B029F31B0
:1004F00019F41092AA02DFCF9F5F9093AA02DBCF7C
:100500002115310591F02130310509F40AC0E1E0EF
:10051000F0E0EC0FFD1FE20FF31F1082CE010196F9
:100520008CDE10926C0210926B02A096E2E00C94AA
:10053000DF0A40E855E260E070E082E0F7D540E293
:100540006AE872E082E0E0D468E170E08BE392E078
:100550006EDE6BE170E082E891E069CEA0E2B0E08F
:10056000E4EBF2E00C94BC0AC9D2E0DDB4DDE1DFDB
:100570005AD178948EE2C82E81E0D82E8E010F5F7A
:100580001F4F9DE3E92E91E0F92E24E0B22E8091D9
:10059000610290916202892BD1F340915D025091EA
:1005A0005E0260915F02709160027F936F935F9330
:1005B0004F93DF92CF921F930F930E94990CBC012F
:1005C000C80135DE60E080E04DD140915D02509180
:1005D0005E0260915F02709160027F936F935F9300
:1005E0004F93FF92EF920E94830C82B18B2582B9C8
:1005F00040915D0250915E0260915F0270916002D5
:100600004F5F5F4F6F4F7F4F40935D0250935E028D
:1006100060935F0270936002109262021092610216
:100620000FB6F894DEBF0FBECDBFB1CF80E090E033
:10063000089581E090E06F9364E06A95F1F76F911F
:100640000197C9F708950F931F93CF93DF9317B1C5
:100650003D982898299AC0E0D0E0EBDF2A9AE9DF9C
:1006600006B12A98E6DF2A9AE4DF2A98249605FF45
:1006700010C09E0140E050E08091710290917202A2
:10068000A0917302B0917402281739074A075B07DB
:1006900020F39E0140E050E080917102909172023F
:1006A000A0917302B0917402281739074A075B07BB
:1006B00028F082E390E0A0E0B0E004C080E395E79A
:1006C000A0E0B0E08093710290937202A093730255
:1006D000B093740217B9DF91CF911F910F910895D4
:1006E00028B190E08F709070880F991F880F991F24
:1006F000237C282B28B92A9A9CDF2A989ACFA2E03B
:10070000B0E0E4E8F3E03CC7182F4A83698357D090
:100710009ADFF7B008B1299869814A81662311F000
:10072000289A01C0289887B18C6387B9413021F09D
:10073000812F82958F70D4DF812F8F70D1DFF7B832
:1007400008B92296E5E038C760E042E0D8CF61E022
:1007500042E0D5CF60E041E0D2CF3D98459A80E3BA
:1007600095E7A0E0B0E08093710290937202A093AD
:100770007302B0937402209A219A229A8EE190E03B
:1007800058D683E0E7DF86E090E053D683E0E2DFEF
:1007900082E090E04ED683E0DDDF82E090E049D653
:1007A00082E0D8DF82E090E044D688E2CDDF88E0C6
:1007B000CBDF81E0C9DF86E0C7DF8CE0C5CF809169
:1007C0007502882321F481E080937502C6CF0895D5
:1007D00081E0BADF80916D0290916E02009711F175
:1007E000A0E0B0E208C0E0916D02F0916E02E20F6D
:1007F000F31FB083AF5F2A2F30E08091080190E0B3
:1008000001976091090170E0869FA001879F500DBC
:10081000969F500D1124241735072CF31092700267
:1008200010926F020895D4CF0895A5E0B0E0EAE1F8
:10083000F4E0A8C6182F80E8898380EC8A8384E9D5
:100840008B8384ED8C83FE01E60FF11D8181810F86
:100850006D837ADF109370026D8160936F0225962D
:10086000E3E0ACC6E2CF0895A0E0B0E0E9E3F4E055
:1008700084C6D82E80916D0290916E02009709F483
:10088000F2C02D2D2A3009F442C02830C9F48091DD
:1008900070028150809370028F3F51F480916F02FB
:1008A000815080936F028091090181508093700282
:1008B00080916F028F3F09F0D1C010926F02CCC0BF
:1008C0008D2D45DF80916F028823B9F090E001976C
:1008D0004091090150E0849F9001859F300D949FC5
:1008E000300D112480917002E0916D02F0916E0242
:1008F000E20FF31FE80FF11DD082809170028F5F2D
:100900008093700290910901891709F0ACC0409161
:100910006F02242F30E08091080190E001972817A2
:10092000390709F096C0C0E0D0E03FC080E06C2FEE
:100930007CDFCC248E010F5F1F4F32C0EC2CFF24D4
:1009400030E0C29FC001C39F900DD29F900D112433
:10095000E0916D02F0916E02EE0DFF1DE80FF91FA0
:100960008081F5DE80916D0290916E0220910901E7
:1009700030E0C29FF001C39FF00DD29FF00D112413
:100980008E0D9F1DE80FF91F029FD001039FB00D30
:10099000129FB00D1124A80FB91F8C918083C394AE
:1009A00020910901C21650F2E80160910801862FDA
:1009B00090E00297C817D9070CF4B8CF6230D0F195
:1009C000625080E032DF00E010E230C0C02FD0E0A3
:1009D0008091080190E0029750E0849F9001859FEC
:1009E000300D949F300D1124E0916D02F0916E0254
:1009F000EC0FFD1FE20FF31F8081A9DE809108013B
:100A000090E002974091090150E0849F9001859FFA
:100A1000300D949F300D1124E0916D02F0916E0223
:100A2000EC0FFD1FE20FF31F10830F5F40910901D0
:100A3000041760F260910801615080E0F6DE10E07A
:100A400003C080E284DE1F5F809109011817C8F39C
:100A500003C04F5F40936F0210927002809170024A
:100A600060916F02E2DE2D2D332727FD3095C901FD
:100A7000CDB7DEB7E8E09DC580916D0290916E0222
:100A8000009709F058D62091080130E021503040FD
:100A90008091090190E0AC01249FC001259F900D39
:100AA000349F900D1124ACD590936E0280936D020B
:100AB000009719F1A0E0B0E208C0E0916D02F0915A
:100AC0006E02E20FF31FB083AF5F2A2F30E08091F8
:100AD000080190E001976091090170E0869FA001F4
:100AE000879F500D969F500D1124241735072CF326
:100AF00084E394E066E173E0BCC60895BDCF089539
:100B0000282F30E0F901EE0FFF1F43E0220F331FC3
:100B10004A95E1F7E20FF31FE65FFE4F82810895E9
:100B2000282F30E0F901EE0FFF1F73E0220F331F73
:100B30007A95E1F7E20FF31FE65FFE4F4181282F20
:100B400030E0F901EE0FFF1F53E0220F331F5A95DB
:100B5000E1F7E20FF31FE65FFE4F81E09381491357
:100B600080E00895282F30E0F901EE0FFF1FB3E079
:100B7000220F331FBA95E1F7E20FF31FE65FFE4F36
:100B8000408551854115510509F452C0282F30E0A8
:100B9000F901EE0FFF1F73E0220F331F7A95E1F783
:100BA000E20FF31FE65FFE4F7281282F30E0F9015C
:100BB000EE0FFF1FB3E0220F331FBA95E1F7E20FEC
:100BC000F31FE65FFE4F9481791790F5282F30E0F0
:100BD000F901EE0FFF1F73E0220F331F7A95E1F743
:100BE000E20FF31FE65FFE4F9281490F511DFA019C
:100BF0006083282F30E0F901EE0FFF1F53E0220F32
:100C0000331F5A95E1F7E20FF31FE65FFE4F928123
:100C10009F5F282F30E0F901EE0FFF1FB3E0220F96
:100C2000331FBA95E1F7E20FF31FE65FFE4F9283A1
:100C3000282F30E0F901EE0FFF1F73E0220F331F62
:100C40007A95E1F7E20FF31FE65FFE4F4281282F0E
:100C500030E0F901EE0FFF1F53E0220F331F5A95CA
:100C6000E1F7E20FF31FE65FFE4F9481491701F5AC
:100C7000282F30E0F901EE0FFF1F93E0220F331F02
:100C80009A95E1F7E20FF31FE65FFE4F95819923F6
:100C900079F0282F30E0F901EE0FFF1FB3E0220FAB
:100CA000331FBA95E1F7E20FF31FE65FFE4F1282A2
:100CB00008950F931F93182F823009F474C088236E
:100CC00019F4E1ECF0E002C0E9ECF0E080818F770C
:100CD0008083812F90E0FC01EE0FFF1F03E0880F5F
:100CE000991F0A95E1F7E80FF91FE65FFE4F80852F
:100CF00091850097A1F1212F30E0F901EE0FFF1F40
:100D0000A3E0220F331FAA95E1F7E20FF31FE65F7E
:100D1000FE4F9281212F30E0F901EE0FFF1F63E0BB
:100D2000220F331F6A95E1F7E20FF31FE65FFE4FD4
:100D300084819817A0F4112319F4E0ECF0E002C0CC
:100D4000E8ECF0E0808187FF0AC0112319F4E6EC9B
:100D5000F0E002C0EEECF0E06081812F03DF212F94
:100D600030E0F901EE0FFF1F43E0220F331F4A95D9
:100D7000E1F7E20FF31FE65FFE4F8081882309F061
:100D800057C0112319F4E1ECF0E002C0E9ECF0E007
:100D90008081806880834CC080912301882319F072
:100DA0001092200145C08091260190912701009763
:100DB00009F43EC090912001809122019817C0F55E
:100DC00080917602882399F439D38093760210E0DB
:100DD0000AC031D3E02FF0E03197E11BF109E95867
:100DE000FD4F80831F5F00917602101790F3A09152
:100DF0007602AA23E9F080912001E0912601F0918A
:100E00002701E80FF11DA150A0937602B0E0A95888
:100E1000BD4F8C918083809120018F5F8093200152
:100E20009091200180912201981709F0BCCFB4CF96
:100E30001F910F910895823051F0882319F4E1EC4D
:100E4000F0E002C0E9ECF0E090819F779083A82F5A
:100E5000B0E0FD01EE0FFF1F53E0AA0FBB1F5A9534
:100E6000E1F7EA0FFB1FE65FFE4F71876087682F8F
:100E700070E0FB01EE0FFF1F93E0660F771F9A955E
:100E8000E1F7E60FF71FE65FFE4F1282682F70E072
:100E9000FB01EE0FFF1FA3E0660F771FAA95E1F796
:100EA000E60FF71FE65FFE4F4483482F50E0FA013C
:100EB000EE0FFF1F63E0440F551F6A95E1F7E40F43
:100EC000F51FE65FFE4F25838230D9F0282F30E0F2
:100ED000F901EE0FFF1F43E0220F331F4A95E1F7A0
:100EE000E20FF31FE65FFE4F9081992351F48823B0
:100EF00019F4E1ECF0E002C0E9ECF0E080818068F8
:100F00008083089521E097CFFDCF08951F920F921F
:100F10000FB60F920BB60F9211242F933F934F935E
:100F20005F936F937F938F939F93AF93BF93EF9351
:100F3000FF936091C60080E015DEFF91EF91BF91B5
:100F4000AF919F918F917F916F915F914F913F9161
:100F50002F910F900BBE0F900FBE0F901F90189502
:100F60001F920F920FB60F920BB60F9211242F9370
:100F70003F934F935F936F937F938F939F93AF9321
:100F8000BF93EF93FF936091CE0081E0EBDDFF9183
:100F9000EF91BF91AF919F918F917F916F915F91F1
:100FA0004F913F912F910F900BBE0F900FBE0F905E
:100FB0001F901895882319F4E1ECF0E002C0E9ECE9
:100FC000F0E08081806280830895882319F4E1EC49
:100FD000F0E002C0E9ECF0E080818F7D808308952D
:100FE000282F30E0F901EE0FFF1F93E0220F331F8F
:100FF0009A95E1F7E20FF31FE65FFE4F26813781F6
:101000002115310591F1282F30E0F901EE0FFF1F76
:10101000A3E0220F331FAA95E1F7E20FF31FE65F6B
:10102000FE4F4181282F30E0F901EE0FFF1F63E0F2
:10103000220F331F6A95E1F7E20FF31FE65FFE4FC1
:101040009381491790F4282F30E0F901EE0FFF1F2C
:1010500043E0220F331F4A95E1F7E20FF31FE65FEB
:10106000FE4F9081992309F4A5CFAFCF823029F1AB
:10107000282F30E0F901EE0FFF1F53E0220F331F3E
:101080005A95E1F7E20FF31FE65FFE4F9081992337
:1010900049F4882319F4E1ECF0E002C0E9ECF0E057
:1010A00098E908C0882319F4E1ECF0E002C0E9EC0B
:1010B000F0E098E1908394DF78940895882319F004
:1010C000813029F402C080E0D1CF81E0CFCF0895F4
:1010D000A0E0B0E0EDE6F8E051C2D82E7A018B0135
:1010E000EDDF8D2D8230F1F0DD2019F4C4ECD0E07D
:1010F00002C0CCECD0E0C801B70128EF3FEF4FEFC2
:101100005FEF00D26050734D8E4C9E4FA801970147
:10111000E4E0220F331F441F551FEA95D1F701D297
:1011200039832883CDB7DEB7E7E044C2D1CF089535
:10113000282F30E0F901EE0FFF1F73E0220F331F5D
:101140007A95E1F7E20FF31FE65FFE4F4681578184
:101150004115510509F465C0282F30E0F901EE0F63
:10116000FF1F93E0220F331F9A95E1F7E20FF31F61
:10117000E65FFE4F6181282F30E0F901EE0FFF1F7F
:10118000A3E0220F331FAA95E1F7E20FF31FE65FFA
:10119000FE4F9381691708F044C0882319F4E0ECEE
:1011A000F0E002C0E8ECF0E0908195FF3AC08823BF
:1011B00019F4A6ECB0E002C0AEECB0E0282F30E0AD
:1011C000F901EE0FFF1F63E0220F331F6A95E1F76D
:1011D000E20FF31FE65FFE4F9181490F511DFA01A7
:1011E00090819C93282F30E0F901EE0FFF1F93E0D0
:1011F000220F331F9A95E1F7E20FF31FE65FFE4FD0
:1012000091819F5F282F30E0F901EE0FFF1FA3E0CF
:10121000220F331FAA95E1F7E20FF31FE65FFE4F9F
:101220009183DECE1F93182F823021F0CEDE812FE6
:101230007FDF1CC080912401909125010097B1F0BF
:1012400030911F0120912101321780F406C0809156
:101250001F018F5F80931F01EDCF20911F01820F2F
:10126000911DFC018081EED0882389F71F9108959C
:1012700080E0D8DF81E0D6DF82E0D4DF80E019DDD6
:1012800081E017DD82E015CDF3CF0895282F30E0FF
:10129000F901EE0FFF1F93E0220F331F9A95E1F73C
:1012A000E20FF31FE65FFE4F77836683282F30E05F
:1012B000F901EE0FFF1FA3E0220F331FAA95E1F7FC
:1012C000E20FF31FE65FFE4F1182282F30E0F90195
:1012D000EE0FFF1F63E0220F331F6A95E1F7E20F65
:1012E000F31FE65FFE4F4383823009F079CE089505
:1012F000CDCF08951F920F920FB60F920BB60F929B
:1013000011242F933F934F935F936F937F938F930A
:101310009F93AF93BF93EF93FF9380E009DFFF911B
:10132000EF91BF91AF919F918F917F916F915F915D
:101330004F913F912F910F900BBE0F900FBE0F90CA
:101340001F9018951F920F920FB60F920BB60F9227
:1013500011242F933F934F935F936F937F938F93BA
:101360009F93AF93BF93EF93FF9381E0E1DEFF91F3
:10137000EF91BF91AF919F918F917F916F915F910D
:101380004F913F912F910F900BBE0F900FBE0F907A
:101390001F9018956F9364E06A95F1F76F9101972C
:1013A000C9F708952F928F939F932FB68091800253
:1013B000909181020196809380029093810290E047
:1013C00080918202891F80938202909188029C5FA3
:1013D000909388028091870280519742C0F0909349
:1013E0008802809387028091830290918402019603
:1013F000809383029093840290E080918502891FFC
:101400008093850280918602891F809386022FBE79
:101410009F918F912F901895CF93DF93EC0104C08B
:1014200088EE93E0B7DF21972097D1F7DF91CF9136
:101430000895F2CF08958FEF64E041C083E867E03C
:101440003ED0F9CF1F93182F982F9095991F992769
:10145000991F85E8891B65E032D0812F8F7765E081
:101460002ED01F9108956F9364E06A95F1F76F9104
:101470000197C9F70895A1E0B0E0E0E4FAE082C086
:10148000182F249908C02C9906C02C9A8EE190E060
:101490006983E9DF698184B1806A84B92698812FE4
:1014A000837080656C7A862B8CBD81E012FF80E0B2
:1014B0008DBD81E090E0B0DF2196E3E07FC00F9327
:1014C0001F93082F162F0CB406FC03C080E064E0C5
:1014D000D2DF0CB404FC03C08CB580618CBD0EBDA2
:1014E00003C00CB404FE0AC00DB407FEFACF1123EA
:1014F00019F0812F90E0B7DF8EB501C080E01F9119
:101500000F910895DB018F939F9364D0BF91AF91AA
:10151000A29F800D911DA39F900DB29F900D11244D
:101520000895A1E21A2EAA1BBB1BFD010DC0AA1F24
:10153000BB1FEE1FFF1FA217B307E407F50720F03C
:10154000A21BB30BE40BF50B661F771F881F991FB7
:101550001A9469F760957095809590959B01AC0100
:10156000BD01CF0108952F923F924F925F926F92EB
:101570007F928F929F92AF92BF92CF92DF92EF9223
:10158000FF920F931F93CF93DF93CDB7DEB7CA1BA4
:10159000DB0B0FB6F894DEBF0FBECDBF09942A88CF
:1015A000398848885F846E847D848C849B84AA8477
:1015B000B984C884DF80EE80FD800C811B81AA8104
:1015C000B981CE0FD11D0FB6F894DEBF0FBECDBFCF
:1015D000ED01089509D0A59F900DB49F900DA49F93
:1015E000800D911D11240895A29FB001B39FC001E9
:1015F000A39F01D0B29F700D811D1124911D0895EC
:101600000F931F93CF93DF938230910510F482E004
:1016100090E0E091CD02F091CE0220E030E0C0E019
:10162000D0E023C04081518148175907A8F04817DE
:10163000590761F482819381209719F09B838A83F3
:101640002EC09093CE028093CD0229C02115310582
:1016500029F04217530710F0A90102C0BE01DF01B3
:1016600002811381EF019A01F8013097D9F6211513
:10167000310509F1281B390B2430310590F41296FD
:101680008D919C9113976115710521F0FB01938356
:10169000828304C09093CE028093CD02FD013296E6
:1016A00044C0FD01E20FF31F819391932250310951
:1016B0002D933C933AC02091CB023091CC02232B46
:1016C00041F420912A0130912B013093CC022093D8
:1016D000CB0220912801309129012115310541F4D7
:1016E0002DB73EB740912C0150912D01241B350B95
:1016F000E091CB02F091CC02E217F307A0F42E1B8D
:101700003F0B2817390778F0AC014E5F5F4F241765
:10171000350748F04E0F5F1F5093CC024093CB0229
:101720008193919302C0E0E0F0E0CF01DF91CF918F
:101730001F910F910895EF92FF920F931F93CF93F4
:10174000DF93009709F48EC0DC01129713961C9268
:101750001E921297E090CD02F090CE02E114F104B7
:1017600089F42D913C911197280F391F8091CB025C
:101770009091CC028217930789F5B093CC02A09385
:10178000CB0270C0E70120E030E001C0EA01CA17D7
:10179000DB0738F44A815B819E0141155105B1F7A1
:1017A00022C0AC0142505109FA01D383C2830081A7
:1017B0001181BC01600F711F6C177D0761F4688196
:1017C0007981600F711F6E5F7F4F718360836A81C3
:1017D0007B81738362832115310529F4B093CE0296
:1017E000A093CD023FC0F901B383A283E9014991DF
:1017F0005991C40FD51FAC17BD0771F4DC019E9140
:101800008E91840F951F02969183808312968D91FD
:101810009C91139793838283A0E0B0E002C0D7012C
:101820007C01F701828193810097C9F7C701029675
:1018300020813181820F931F2091CB023091CC0205
:101840002817390779F4109729F41092CE021092D4
:10185000CD0204C013961C921E921297F092CC02F5
:10186000E092CB02DF91CF911F910F91FF90EF900B
:1018700008950F931F93CF93DF93EC018B01009793
:1018800031F46115710519F4E0E0F0E036C06EE066
:1018900070E081E090E059D5FC010097A9F380E861
:1018A00083830115110571F01387028781E8838313
:1018B0008091CF029091D002892B21F4F093D00235
:1018C000E093CF022097C9F0D187C08783818260DF
:1018D00083838091D1029091D202892B71F4F0938D
:1018E000D202E093D1028091D3029091D402892B4D
:1018F00021F4F093D402E093D302CF01DF91CF9192
:101900001F910F910895CF93DF9300D0CDB7DEB72D
:10191000FE01379661917191FA83E983AF0180915D
:10192000D1029091D20258D00F900F90DF91CF91B9
:1019300008950F931F93CF93DF93CDB7DEB76097D2
:101940000FB6F894DEBF0FBECDBF0F89188D86E0AD
:101950008C831A8309838FEF9FE79E838D83AE016B
:10196000455E5F4F588B4F87698D7A8DCE0101960A
:1019700033D0EF81F885E00FF11F108260960FB62B
:10198000F894DEBF0FBECDBFDF91CF911F910F91B5
:101990000895CF93DF93CDB7DEB760970FB6F89475
:1019A000DEBF0FBECDBF85E08C838D899E899A8373
:1019B0008983AE01475E5F4F588B4F876F89788D63
:1019C000CE010196A2D360960FB6F894DEBF0FBE8B
:1019D000CDBFDF91CF9108952F923F924F925F92AA
:1019E0006F927F928F929F92AF92BF92CF92DF922F
:1019F000EF92FF920F931F93CF93DF93CDB7DEB794
:101A00002C970FB6F894DEBF0FBECDBF7C016B01E3
:101A10008A01FC0117821682838181FFBAC1882462
:101A20008394912C8C0E9D1EF7019381F60193FDFA
:101A3000859193FF81916F01882309F4A6C18532B6
:101A400039F493FD859193FF81916F01853221F4E3
:101A5000B70190E006D5E8CF712C312C20E0203280
:101A6000A8F48B3261F028F4803251F0833271F4A3
:101A70000BC08D3239F0803349F4216028C02260D8
:101A8000246025C0286023C0206121C027FD27C015
:101A9000382F30533A3078F426FF06C0FAE07F9EA4
:101AA000300D1124732E13C08AE0389E300D11249E
:101AB000332E20620CC08E3221F426FD66C12064D4
:101AC00006C08C3611F4206802C0883641F4F60155
:101AD00093FD859193FF81916F018111C0CF982F64
:101AE0009554933018F09052933028F40C5F1F4FA8
:101AF000FFE3F9830DC0833631F0833771F083350E
:101B000009F05AC022C0F801808189830E5F1F4FFF
:101B100066246394712C540114C02801F2E04F0E26
:101B2000511CF801A080B18026FF03C0672D70E032
:101B300002C06FEF7FEFC5012C8748D43C018201C2
:101B40002C856FE7262E222217C02801F2E04F0EC7
:101B5000511CF801A080B18026FF03C0672D70E002
:101B600002C06FEF7FEFC5012C871ED43C012C858E
:101B700050E8252E222A820123FC1AC005C0B70195
:101B800080E290E06ED43A94832D90E06816790656
:101B9000B0F30EC0F50127FC859127FE81915F010E
:101BA000B70190E05ED431103A94F1E06F1A7108F9
:101BB0006114710479F7E6C0843611F0893639F57D
:101BC000F80127FF07C060817181828193810C5FDA
:101BD0001F4F08C060817181882777FD8095982FFD
:101BE0000E5F1F4F4FE6642E622297FF09C090954B
:101BF0008095709561957F4F8F4F9F4FF0E86F2ACA
:101C00002AE030E0A40174D4A82EA81843C0853778
:101C100031F43FEEB32EB2222AE030E024C099EF37
:101C2000B92EB2228F36B9F020F4883509F0ADC054
:101C30000DC0803721F0883709F0A7C002C020E12D
:101C4000B22AB4FE0BC084E0B82A08C024FF09C041
:101C5000E6E0BE2A06C028E030E005C020E130E022
:101C600002C020E132E0F801B7FE07C06081718157
:101C7000828193810C5F1F4F06C06081718180E07B
:101C800090E00E5F1F4FA40133D4A82EA8188FE751
:101C9000682E6B2066FE0BC0362D3E7FA71450F4D5
:101CA00064FE0AC062FC08C0362D3E7E05C0BA2C18
:101CB000362D03C0BA2C01C0B72C34FF0DC0FE0175
:101CC000EA0DF11D8081803311F4397E09C032FFA5
:101CD00006C0B394B39404C0832F867809F0B394FC
:101CE00033FD13C030FF0EC07A2CB31458F4730CBC
:101CF0007B18B32C07C0B70180E290E03C87B1D3DA
:101D0000B3943C85B314B8F304C0B31410F43B1877
:101D100001C0312C34FF11C0B70180E390E03C8753
:101D2000A0D33C8532FF1CC031FF03C088E590E0A2
:101D300002C088E790E0B7010CC0832F867881F05D
:101D400031FD02C080E201C08BE237FD8DE2B701B8
:101D500090E087D305C0B70180E390E082D37A9406
:101D6000A714C8F3AA94F401EA0DF11DB70180810C
:101D700090E077D3A110F6CF05C0B70180E290E0E4
:101D800070D33A943110F9CF4FCEF70126813781C5
:101D900002C02FEF3FEFC9012C960FB6F894DEBFBB
:101DA0000FBECDBFDF91CF911F910F91FF90EF90AC
:101DB000DF90CF90BF90AF909F908F907F906F906B
:101DC0005F904F903F902F90089520FD09C0FC0137
:101DD00023FD05C022FF02C07383628351834083C9
:101DE0000895CF92DF92EF92FF920F931F9344FDDD
:101DF00010C046FD10C0DB01FC01AA0FBB1FEE1F87
:101E0000FF1F1094D1F76A0F7B1F8E1F9F1F31E0B9
:101E100003C033E001C034E0660F771F881F991FAD
:101E20003150D1F76B017C01C20ED11CE11CF11CB9
:101E300097018601B601C9011F910F91FF90EF90A4
:101E4000DF90CF9008950F931F93CF93DF938C0172
:101E5000C801C7D2EC0197FD06C093D2892BC1F708
:101E6000B801CE012AD3CE01DF91CF911F910F91FE
:101E700008958F929F92AF92CF92DF92EF92FF924E
:101E80000F931F93CF93DF93EC01A62E4A01022FED
:101E9000A8D2FC01FF27EB32F10519F0BD9749F4F8
:101EA0000068AA9411F480E05CC0CE019AD297FD3C
:101EB000FACF102F1D7F302F3073D1F48033C1F44F
:101EC000AA9409F43BC0CE018CD297FD37C0883765
:101ED00011F0883541F41264AA9481F1CE0181D2C7
:101EE00097FF06C02BC006FF02C0126001C012613E
:101EF000C12CD12C7601282F2053283078F014FFE4
:101F000003C0BE01DAD217C02A3040F016FFF9CF65
:101F10002F7D322F31513630A0F72750412FC70186
:101F2000B6015FDF6B017C011260AA9451F0CE0113
:101F300058D297FFE0CF11FD04C0B5CFC12CD12CF2
:101F4000760117FF08C0F094E094D094C094C11CAF
:101F5000D11CE11CF11C212FB701A601C40135DF02
:101F600081E0DF91CF911F910F91FF90EF90DF9073
:101F7000CF90AF909F908F9008956F927F929F9295
:101F8000AF92BF92CF92DF92EF92FF920F931F9387
:101F9000CF93DF93CDB7DEB7A1970FB6F894DEBF2E
:101FA0000FBECDBF6C017A018901FE01319680E23E
:101FB000DF011D928A95E9F7D60113969C9020E0E7
:101FC00030E0A12CA0E0B12CCF0141E050E0F801BD
:101FD00093FC759193FE71918F01711103C000E024
:101FE00010E07EC07E3519F42115310559F1EB2D35
:101FF000F0E0E217F3073CF47D3569F17D3219F426
:10200000AA2319F103C0A11101C0A72EE72FE6955D
:10201000E695E6953C016E0E711CF301A72FA770A3
:102020003A0102C0660C771CAA95E2F7D301B08191
:10203000BA2BB0837A1559F07A1510F47F5FE6CF8A
:102040007150E4CFBB24B39403C0A1E001C0A0E071
:102050002F5F3F4FBCCFAA2319F08E8180628E8301
:10206000B11003C0BB24B3940BC0FE013196CE0166
:102070008196208120952193E817F907D1F7F2CFB7
:10208000C60169A3AED169A197FD23C0282F26956B
:1020900026952695E1E0F0E0EC0FFD1FE20FF11D23
:1020A000208130E0AC014770552702C03595279557
:1020B0004A95E2F720FD03C0B601FFD10AC0E11442
:1020C000F10419F0D7018D937D016150B12CC1F657
:1020D00002C0B11084CFE114F10411F0F7011082B5
:1020E000C801A1960FB6F894DEBF0FBECDBFDF9139
:1020F000CF911F910F91FF90EF90DF90CF90BF9005
:10210000AF909F907F906F9008954F925F927F92D3
:102110008F929F92AF92BF92CF92DF92EF92FF92F7
:102120000F931F93CF93DF931F92CDB7DEB78C0130
:102130002B015A01FC0117821682812CE2C08E2DE0
:1021400090E01FD1892B19F0C8017DDEDAC0F5E2DD
:10215000EF120AC0F201F3FC3591F3FE31912F0129
:10216000353261F455E2E52EC8013BD197FDD4C06C
:10217000E81609F4C6C0B801A0D1D0C03A3241F483
:10218000F3FC3591F3FE31912F019924939401C012
:10219000912C712C0FC0F2E09F2A672D70E080E037
:1021A00090E040E21EDE762EF201F3FC3591F3FE64
:1021B00031912F01232F20532A3068F391FE03C061
:1021C000711003C0ABC077247A94383619F03C36CE
:1021D00099F40AC0F201F3FC3591F3FE31912F011D
:1021E000383651F4F8E09F2A84E0982AF201F3FC93
:1021F0003591F3FE31912F01332309F48FC0632F02
:1022000070E08CE890E03983C4D03981892B09F4DF
:1022100085C090FC07C0F501E080F18082E0A80E47
:10222000B11C02C0E12CF12C3E3649F4F801468184
:10223000578160E070E0292DC701C7DD62C03336E9
:1022400089F491FC02C077247394C801CAD097FD29
:1022500063C0E114F10419F0F70181937F017A94CE
:10226000A1F74DC03B3551F49201A701672DC8017C
:1022700084DE2C01009709F042C03CC0C8013983BC
:10228000E2DD398197FD48C03F3641F128F434360C
:1022900011F1393631F527C0333719F0353709F5E3
:1022A0001AC0C8019ED06C0197FD0FC06AD0892B5F
:1022B00021F0B801C60101D108C0E114F10419F000
:1022C000F701C1927F017A9461F7E114F104B9F04A
:1022D000F701108214C0F0E29F2A05C080E1982A1D
:1022E00002C090E4992A292DA701672DC801C1DDFC
:1022F000811105C0F8018381807371F40FC090FED5
:102300008394F801F380F201F3FCE590F3FEE19091
:102310002F01E11014CF02C0882019F0282D30E0E1
:1023200002C02FEF3FEFC9010F90DF91CF911F91B6
:102330000F91FF90EF90DF90CF90BF90AF909F9064
:102340008F907F905F904F9008950F931F93CF933E
:10235000DF93689F8001699F100D789F100D1124F5
:10236000C8014ED9C82FD92F209729F0A80160E0C5
:1023700070E08C2F24D0CE01DF91CF911F910F916F
:102380000895911113C1803219F089508550D0F70A
:102390000895FC010590061621F00020D9F7C00130
:1023A00008953197CF010895FC0105906150704068
:1023B0000110D8F7809590958E0F9F1F0895DC012E
:1023C00001C06D9341505040E0F70895FC01615009
:1023D000704001900110D8F7809590958E0F9F1F47
:1023E0000895CF93DF93EC013B8130FF34C036FF7B
:1023F0000AC03F7B3B838E819F8101969F838E83A2
:102400002A8130E02AC032FF0FC0E881F981808143
:10241000992787FD9095009719F430623B831BC084
:102420003196F983E8830EC0EA85FB85099597FF0D
:1024300009C02B81019611F480E101C080E2822B5A
:102440008B8309C02E813F812F5F3F4F3F832E83B7
:102450009C01332702C02FEF3FEFC901DF91CF91DD
:1024600008950F931F93CF93DF938C01EB018B8122
:1024700081FD03C00FEF1FEF1AC082FF0DC02E8138
:102480003F818C819D812817390764F4E881F981A7
:102490000193F983E88306C0E885F985802F0995C3
:1024A000892B41F78E819F8101969F838E83C8017E
:1024B000DF91CF911F910F910895FB01238120FFA0
:1024C00013C026FD11C08F3F3FEF930769F0828351
:1024D0002F7D206423832681378121503109378362
:1024E00026839C01332702C02FEF3FEFC9010895D7
:1024F000FA01AA27283051F1203181F1E8946F9335
:102500006E7F6E5F7F4F8F4F9F4FAF4FB1E03ED0DA
:10251000B4E03CD0670F781F891F9A1FA11D680F78
:10252000791F8A1F911DA11D6A0F711D811D911DAB
:10253000A11D20D009F468943F912AE0269F112420
:102540003019305D3193DEF6CF010895462F477084
:10255000405D4193B3E00FD0C9F7F6CF462F4F70DF
:10256000405D4A3318F0495D31FD4052419302D03D
:10257000A9F7EACFB4E0A6959795879577956795E3
:10258000BA95C9F700976105710508959B01AC01E3
:102590000A2E06945795479537952795BA95C9F70A
:1025A000620F731F841F951FA01D08959927882708
:0625B0000895F894FFCF2E
:1025B60001E803E803E80301021000000000000040
:1025C6000000000000000000000000000000010004
:1025D60000000000000000000000D502200052208C
:1025E600746F67676C65732025640D0A00523A257F
:1025F6006400436C6F636B3A31303030487A0025A3
:1026060063202563202564004F703A256320433AF2
:10261600256320563A25640D0A0042616420436F03
:102626006C6F722E20547279207B524759417D0D72
:102636000A000D4D656E753A207B54505A7D207BFD
:10264600524759417D203C696E743E3A2000522023
:10265600746F67676C65733A2025640D0A0047201E
:10266600746F67676C65733A2025640D0A005920FC
:10267600746F67676C65733A2025640D0A00546FA2
:1026860067676C657320523A256420473A256420B3
:10269600593A25640D0A0044656661756C742069B3
:1026A6006E207028636F6C6F72292E20486F773FFB
:1026B6000D0A0044656661756C7420696E207A287F
:1026C600636F6C6F72292E20486F773F0D0A0043A7
:1026D6006F6D6D616E6420646F6573206E6F74201C
:1026E600636F6D707574652E0D0A00555342205345
:1026F600657269616C20496E697469616C697A6595
:04270600640D0A0054
:00000001FF
